:100000000C9446010C9467010C9467010C946701F1
:100010000C9467010C9467010C9467010C946701C0
:100020000C9467010C9467010C9467010C946701B0
:100030000C9467010C9467010C9467010C946701A0
:100040000C9467010C9467010C9467010C94670190
:100050000C9467010C9467010C9467010C946A037B
:100060000C9467010C9467010C9467010C94670170
:100070000C9467010C9467010C9467010C94670160
:100080000C9467010C9467010C9467010C94670150
:100090000C9467010C9467010C9467010C94670140
:1000A0000C9467010C9467010C9467010C94670130
:1000B0000C9467010C9467010C9467010C94670120
:1000C0000C9467010C9467010C9467010C94670110
:1000D0000C9467010C9467010C9467010C94670100
:1000E0000C9467010C94CF010C949A020C94620258
:1000F0000C9458020C94B8010C94FC010C94F2017D
:100100000C94BD020C946C020C940A020C94040230
:100110000C94B3020C9476020C94DE010C94C7028A
:100120000C94BD010C9486020C94D3010C94E40150
:100130000C94F6010C94DB010C944B020C94A40279
:100140000C94E8010C94DB020C9490020C94EE01E8
:100150000C94E5020C9400020C9453020C94D1020E
:100160000C940E020C94D7010C947E0200000A0B32
:1001700002090C0D0E080703040100000000000036
:10018000000000000000000000000000000000006F
:10019000000000000000000012111000000000002C
:1001A000000000000000000000000000000000004F
:1001B000000000002200250028002B002E00310046
:1001C000340002010000050108010B0100002100BC
:1001D000240027002A002D00300033000101000018
:1001E000040107010A010000200023002600290065
:1001F0002C002F003200000100000301060109015C
:1002000005050505070508080808020202020A0A92
:1002100008080404040401010101010101010303B0
:10022000030303030303040707070C0C0C0C0C0C5B
:100230000C0C0202020206060606060606060B0B58
:100240000B0B0B0B0B0B0102102020080810204099
:10025000102040800201020108040201010204088A
:100260001020408080402010080402018004020118
:100270008040201008040201080402010102040861
:1002800010204080010204081020408011241FBE6D
:10029000CFEFD1E2DEBFCDBF00E00CBF12E0A0E0A7
:1002A000B2E0E2E4FAE000E00BBF02C007900D927A
:1002B000A230B107D9F722E0A2E0B2E001C01D925E
:1002C000AB30B207E1F70E94F9030C941F050C94C0
:1002D000000090E0FC01EA5BFD4F249180509E4FAE
:1002E000FC018491882399F090E0880F991FFC010C
:1002F000E453FE4FA591B491FC01EE54FE4F85915D
:1003000094918FB7F894EC91E22BEC938FBF089502
:10031000282F30E0F901E459FE4F9491F901EA5B8E
:10032000FD4F449120503E4FF9012491222309F4BE
:1003300035C0992311F191509231F8F4E92FF0E092
:100340008827EA55FE4F8F4F0C941705D701DB0124
:10035000B801CF01D301BD01DE01E401E801EE01E6
:10036000F201F601FC010002BD0104020A020E02C4
:10037000809180008F7780938000E22FF0E0EE0F75
:10038000FF1FEE54FE4FA591B4918FB7F894EC91F6
:10039000611148C040954E234C938FBF08958091C2
:1003A00080008F7DE8CF80918000877FE4CF84B587
:1003B0008F7784BDE2CF84B58F7DFBCF8091B00075
:1003C0008F778093B000D9CF8091B0008F7DF9CF27
:1003D000809190008F7780939000CFCF8091900094
:1003E0008F7DF9CF80919000877FF5CF8091A0001D
:1003F0008F778093A000C1CF8091A0008F7DF9CF2F
:100400008091A000877FF5CF809120018F77809326
:100410002001B3CF809120018F7DF9CF8091200101
:10042000877FF5CF4E2BB8CF1F93CF93DF93182F35
:10043000EB010E946901209739F460E0812FDF9180
:10044000CF911F910C948801CF3FD10511F461E049
:10045000F5CFE12FF0E0E459FE4FE491E150E231B5
:1004600008F0B3C0F0E08827E75CFD4F8F4F0C9495
:1004700017054B025302580262026C02E502760233
:100480007E02860290029A02A402B302BD02E50235
:10049000C702D102DB0284B5806884BDC7BDDF918D
:1004A000CF911F91089584B5806284BDC8BDF7CFF8
:1004B00080918000806880938000D0938900C093F1
:1004C0008800EDCF80918000806280938000D0937F
:1004D0008B00C0938A00E3CF809180008860809376
:1004E0008000D0938D00C0938C00D9CF8091B00054
:1004F00080688093B000C093B300D1CF8091B000EA
:1005000080628093B000C093B400C9CF8091900006
:10051000806880939000D0939900C0939800BFCFDB
:1005200080919000806280939000D0939B00C09354
:100530009A00B5CF80919000886080939000D0930E
:100540009D00C0939C00ABCF8091A00080688093F9
:10055000A0008091A0008F7B8093A000D093A90081
:10056000C093A8009CCF8091A00080628093A000DF
:10057000D093AB00C093AA0092CF8091A000886076
:100580008093A000D093AD00C093AC0088CF809141
:100590002001806880932001D0932901C093280115
:1005A0007ECF80912001806280932001D0932B0127
:1005B000C0932A0174CF809120018860809320012C
:1005C000D0932D01C0932C016ACFC038D1050CF017
:1005D0003ECF33CF3FB7F894809107029091080245
:1005E000A0910902B0910A0226B5A89B05C02F3F31
:1005F00019F00196A11DB11D3FBFBA2FA92F982F49
:100600008827BC01CD01620F711D811D911D42E043
:10061000660F771F881F991F4A95D1F708958F920B
:100620009F92AF92BF92CF92DF92EF92FF920E9481
:10063000EA024B015C0188ECC82ED12CE12CF12C94
:100640000E94EA02681979098A099B09683E734089
:1006500081059105A8F321E0C21AD108E108F1084B
:1006600088EE880E83E0981EA11CB11CC114D10431
:10067000E104F10429F7FF90EF90DF90CF90BF9055
:10068000AF909F908F9008950F931F9390E0FC017F
:10069000EA5BFD4F6491FC01E050FE4FE491F0E015
:1006A000EE0FFF1FEA51FE4F8591949100E412E492
:1006B0002FE030E0462F0E94B403611571058105DB
:1006C000910529F06F5F7F4F8F4F9F4F9F701F9154
:1006D0000F9108951F920F920FB60F9211242F932E
:1006E0003F938F939F93AF93BF9380910302909119
:1006F0000402A0910502B09106023091020223E0AB
:10070000230F2D3758F50196A11DB11D209302022C
:100710008093030290930402A0930502B093060213
:100720008091070290910802A0910902B0910A02FB
:100730000196A11DB11D8093070290930802A0931A
:100740000902B0930A02BF91AF919F918F913F919F
:100750002F910F900FBE0F901F90189526E8230F32
:100760000296A11DB11DD2CFCF92DF92EF92FF92E0
:100770000F931F93E82FF92F05C00150110921098C
:10078000310961F1908196239417B9F305C00150A6
:1007900011092109310911F1908196239413F7CFA2
:1007A000C12CD12CE12CF12C0AC08FEFC81AD80A29
:1007B000E80AF80A0C151D052E053F0579F0808121
:1007C0008623841791F36C2D7D2D8E2D9F2D1F91E7
:1007D0000F91FF90EF90DF90CF90089560E070E070
:1007E00080E090E01F910F91FF90EF90DF90CF900D
:1007F0000895789484B5826084BD84B5816084BD99
:1008000085B5826085BD85B5816085BD80916E00AE
:10081000816080936E0010928100809181008260DF
:10082000809381008091810081608093810080911C
:1008300080008160809380008091B100846080930B
:10084000B1008091B00081608093B00080919100F0
:1008500082608093910080919100816080939100EB
:10086000809190008160809390008091A1008260CF
:100870008093A1008091A10081608093A10080916C
:10088000A00081608093A00080912101826080930C
:1008900021018091210181608093210180912001BB
:1008A00081608093200180917A00846080937A0037
:1008B00080917A00826080937A0080917A008160D2
:1008C00080937A0080917A00806880937A001092F9
:1008D000C1008DE00E94690185E30E94690184E303
:1008E0000E94690184E00E94690182E30E9469011B
:1008F00083E30E94690161E083E30E94880161E073
:1009000084E30E94880180E0E82E80E0F82E05E56F
:1009100010E087E10E9444034B0186E10E944403FA
:1009200089E10E9444032B0188E10E944403920163
:100930002D5637402B323140D8F560E082E30E94DB
:10094000880160E085E30E948801C0910002D09197
:100950000102CE36D105DCF521960E940F03D0931B
:100960000102C0930002BE0184E00E941402BE0195
:100970008DE00E9414022DE6821A27E0920A43E6D7
:100980008416910470F4109301020093000270E049
:1009900060E084E00E94140270E060E08DE00E945C
:1009A0001402E114F10409F4B4CF0E940000B1CFA5
:1009B00025EF421A21E0520A47E5441642E0540668
:1009C00048F461E082E30E94880161E0BBCFCEE69B
:1009D000D0E0C3CF9B012D5637402B32314080F4FD
:1009E00060E082E30E94880161E085E30E94880163
:1009F00069E670E084E00E94140269E670E0B8CF16
:100A0000655F71406735724030F461E082E30E94B7
:100A1000880160E0EACF109301020093000270E0C9
:100A200060E084E00E94140270E060E0A1CFEE0F6D
:100A3000FF1F881F8BBF0790F691E02D1994F89443
:020A4000FFCFE6
:020A420055005D
:00000001FF
